:020000040000FA
:100000000128831603138601831203138601A301BB
:10001000A40133203A200030A500A50A2508053C9C
:100020000319080014200D281C3017200800A20016
:10003000220E0F39860006128616861222080F3904
:1000400086000612861686120800A200220E0F39BC
:10005000860006168616861222080F3986000616B6
:10006000861686120800023017200C301720283020
:10007000172008006E302520693025206C3025209F
:1000800061302520793025205120613025206C30C9
:1000900025207430252075302520673025200B2041
:1000A0000800C0301720080082074E3449344C3411
:1000B000413459340034820741344C34543455347B
:0600C00047340034622801
:00000001FF
